{
  "_format": "hh-sol-artifact-1",
  "contractName": "StakingRewards",
  "sourceName": "contracts/StakingRewards.sol",
  "abi": [
    {
      "inputs": [
        {
          "internalType": "address",
          "name": "_rewardsDistribution",
          "type": "address"
        },
        {
          "internalType": "address",
          "name": "_rewardsToken",
          "type": "address"
        },
        {
          "internalType": "address",
          "name": "_stakingToken",
          "type": "address"
        },
        {
          "internalType": "address",
          "name": "_uniswap",
          "type": "address"
        },
        {
          "internalType": "address",
          "name": "_weth",
          "type": "address"
        },
        {
          "internalType": "address",
          "name": "_uniswapFactory",
          "type": "address"
        }
      ],
      "stateMutability": "nonpayable",
      "type": "constructor"
    },
    {
      "anonymous": false,
      "inputs": [
        {
          "indexed": false,
          "internalType": "address",
          "name": "tokenA",
          "type": "address"
        },
        {
          "indexed": false,
          "internalType": "address",
          "name": "token2",
          "type": "address"
        },
        {
          "indexed": false,
          "internalType": "uint256",
          "name": "liquidity",
          "type": "uint256"
        },
        {
          "indexed": false,
          "internalType": "uint256",
          "name": "amountA",
          "type": "uint256"
        },
        {
          "indexed": false,
          "internalType": "uint256",
          "name": "amountB",
          "type": "uint256"
        }
      ],
      "name": "AddLiquidity",
      "type": "event"
    },
    {
      "anonymous": false,
      "inputs": [
        {
          "indexed": false,
          "internalType": "uint256",
          "name": "reward",
          "type": "uint256"
        },
        {
          "indexed": false,
          "internalType": "uint256",
          "name": "periodFinish",
          "type": "uint256"
        }
      ],
      "name": "RewardAdded",
      "type": "event"
    },
    {
      "anonymous": false,
      "inputs": [
        {
          "indexed": true,
          "internalType": "address",
          "name": "user",
          "type": "address"
        },
        {
          "indexed": false,
          "internalType": "uint256",
          "name": "reward",
          "type": "uint256"
        }
      ],
      "name": "RewardPaid",
      "type": "event"
    },
    {
      "anonymous": false,
      "inputs": [
        {
          "indexed": true,
          "internalType": "address",
          "name": "user",
          "type": "address"
        },
        {
          "indexed": false,
          "internalType": "uint256",
          "name": "amount",
          "type": "uint256"
        }
      ],
      "name": "Staked",
      "type": "event"
    },
    {
      "anonymous": false,
      "inputs": [
        {
          "indexed": true,
          "internalType": "address",
          "name": "user",
          "type": "address"
        },
        {
          "indexed": false,
          "internalType": "uint256",
          "name": "amount",
          "type": "uint256"
        }
      ],
      "name": "Withdrawn",
      "type": "event"
    },
    {
      "inputs": [],
      "name": "UNISWAP_FACTORY",
      "outputs": [
        {
          "internalType": "address",
          "name": "",
          "type": "address"
        }
      ],
      "stateMutability": "view",
      "type": "function"
    },
    {
      "inputs": [
        {
          "internalType": "address",
          "name": "_tokenB",
          "type": "address"
        }
      ],
      "name": "addLiquidityAndStake",
      "outputs": [],
      "stateMutability": "payable",
      "type": "function"
    },
    {
      "inputs": [
        {
          "internalType": "address",
          "name": "_tokenOut",
          "type": "address"
        }
      ],
      "name": "addLiquidityEth",
      "outputs": [
        {
          "internalType": "uint256",
          "name": "",
          "type": "uint256"
        },
        {
          "internalType": "uint256",
          "name": "",
          "type": "uint256"
        },
        {
          "internalType": "uint256",
          "name": "",
          "type": "uint256"
        }
      ],
      "stateMutability": "payable",
      "type": "function"
    },
    {
      "inputs": [
        {
          "internalType": "address",
          "name": "_account",
          "type": "address"
        }
      ],
      "name": "balanceOf",
      "outputs": [
        {
          "internalType": "uint256",
          "name": "",
          "type": "uint256"
        }
      ],
      "stateMutability": "view",
      "type": "function"
    },
    {
      "inputs": [],
      "name": "claimTokens",
      "outputs": [],
      "stateMutability": "nonpayable",
      "type": "function"
    },
    {
      "inputs": [
        {
          "internalType": "address",
          "name": "_account",
          "type": "address"
        }
      ],
      "name": "earned",
      "outputs": [
        {
          "internalType": "uint256",
          "name": "",
          "type": "uint256"
        }
      ],
      "stateMutability": "view",
      "type": "function"
    },
    {
      "inputs": [
        {
          "internalType": "uint256",
          "name": "r",
          "type": "uint256"
        },
        {
          "internalType": "uint256",
          "name": "a",
          "type": "uint256"
        }
      ],
      "name": "getSwapAmount",
      "outputs": [
        {
          "internalType": "uint256",
          "name": "",
          "type": "uint256"
        }
      ],
      "stateMutability": "pure",
      "type": "function"
    },
    {
      "inputs": [],
      "name": "lastTimeRewardApplicable",
      "outputs": [
        {
          "internalType": "uint256",
          "name": "",
          "type": "uint256"
        }
      ],
      "stateMutability": "view",
      "type": "function"
    },
    {
      "inputs": [],
      "name": "lastUpdateTime",
      "outputs": [
        {
          "internalType": "uint256",
          "name": "",
          "type": "uint256"
        }
      ],
      "stateMutability": "view",
      "type": "function"
    },
    {
      "inputs": [
        {
          "internalType": "uint256",
          "name": "reward",
          "type": "uint256"
        },
        {
          "internalType": "uint256",
          "name": "rewardsDuration",
          "type": "uint256"
        }
      ],
      "name": "notifyRewardAmount",
      "outputs": [],
      "stateMutability": "nonpayable",
      "type": "function"
    },
    {
      "inputs": [],
      "name": "periodFinish",
      "outputs": [
        {
          "internalType": "uint256",
          "name": "",
          "type": "uint256"
        }
      ],
      "stateMutability": "view",
      "type": "function"
    },
    {
      "inputs": [],
      "name": "rewardPerToken",
      "outputs": [
        {
          "internalType": "uint256",
          "name": "",
          "type": "uint256"
        }
      ],
      "stateMutability": "view",
      "type": "function"
    },
    {
      "inputs": [],
      "name": "rewardPerTokenStored",
      "outputs": [
        {
          "internalType": "uint256",
          "name": "",
          "type": "uint256"
        }
      ],
      "stateMutability": "view",
      "type": "function"
    },
    {
      "inputs": [],
      "name": "rewardRate",
      "outputs": [
        {
          "internalType": "uint256",
          "name": "",
          "type": "uint256"
        }
      ],
      "stateMutability": "view",
      "type": "function"
    },
    {
      "inputs": [
        {
          "internalType": "address",
          "name": "",
          "type": "address"
        }
      ],
      "name": "rewards",
      "outputs": [
        {
          "internalType": "uint256",
          "name": "",
          "type": "uint256"
        }
      ],
      "stateMutability": "view",
      "type": "function"
    },
    {
      "inputs": [],
      "name": "rewardsDistribution",
      "outputs": [
        {
          "internalType": "address",
          "name": "",
          "type": "address"
        }
      ],
      "stateMutability": "view",
      "type": "function"
    },
    {
      "inputs": [],
      "name": "rewardsToken",
      "outputs": [
        {
          "internalType": "contract IERC20",
          "name": "",
          "type": "address"
        }
      ],
      "stateMutability": "view",
      "type": "function"
    },
    {
      "inputs": [
        {
          "internalType": "uint256",
          "name": "_amount",
          "type": "uint256"
        }
      ],
      "name": "stake",
      "outputs": [],
      "stateMutability": "nonpayable",
      "type": "function"
    },
    {
      "inputs": [
        {
          "internalType": "uint256",
          "name": "_amount",
          "type": "uint256"
        },
        {
          "internalType": "uint256",
          "name": "_deadline",
          "type": "uint256"
        },
        {
          "internalType": "uint8",
          "name": "_v",
          "type": "uint8"
        },
        {
          "internalType": "bytes32",
          "name": "_r",
          "type": "bytes32"
        },
        {
          "internalType": "bytes32",
          "name": "_s",
          "type": "bytes32"
        }
      ],
      "name": "stakeWithPermit",
      "outputs": [],
      "stateMutability": "nonpayable",
      "type": "function"
    },
    {
      "inputs": [],
      "name": "stakingToken",
      "outputs": [
        {
          "internalType": "contract IERC20",
          "name": "",
          "type": "address"
        }
      ],
      "stateMutability": "view",
      "type": "function"
    },
    {
      "inputs": [],
      "name": "totalSupply",
      "outputs": [
        {
          "internalType": "uint256",
          "name": "",
          "type": "uint256"
        }
      ],
      "stateMutability": "view",
      "type": "function"
    },
    {
      "inputs": [],
      "name": "uniswap",
      "outputs": [
        {
          "internalType": "contract IUniswap",
          "name": "",
          "type": "address"
        }
      ],
      "stateMutability": "view",
      "type": "function"
    },
    {
      "inputs": [
        {
          "internalType": "uint256",
          "name": "_amount",
          "type": "uint256"
        }
      ],
      "name": "unstake",
      "outputs": [],
      "stateMutability": "nonpayable",
      "type": "function"
    },
    {
      "inputs": [
        {
          "internalType": "address",
          "name": "",
          "type": "address"
        }
      ],
      "name": "userRewardPerTokenPaid",
      "outputs": [
        {
          "internalType": "uint256",
          "name": "",
          "type": "uint256"
        }
      ],
      "stateMutability": "view",
      "type": "function"
    },
    {
      "inputs": [],
      "name": "weth",
      "outputs": [
        {
          "internalType": "address",
          "name": "",
          "type": "address"
        }
      ],
      "stateMutability": "view",
      "type": "function"
    },
    {
      "stateMutability": "payable",
      "type": "receive"
    }
  ],
  "bytecode": "0x608060405260056009553480156200001657600080fd5b50604051620020ef380380620020ef8339810160408190526200003991620000cd565b60018055600280546001600160a01b03199081166001600160a01b03958616179091556003805482169385169390931790925560048054831691841691909117905560058054821694831694909417909355600680548416928216929092179091556000805490921692169190911790556200014e565b80516001600160a01b0381168114620000c857600080fd5b919050565b60008060008060008060c08789031215620000e757600080fd5b620000f287620000b0565b95506200010260208801620000b0565b94506200011260408801620000b0565b93506200012260608801620000b0565b92506200013260808801620000b0565b91506200014260a08801620000b0565b90509295509295509295565b611f91806200015e6000396000f3fe6080604052600436106101695760003560e01c806372f702f3116100d1578063c74c0fac1161008a578063d1af0c7d11610064578063d1af0c7d14610433578063df136d6514610453578063ebe2b12b14610469578063ecd9ba821461047f57600080fd5b8063c74c0fac146103e8578063c8f33c9114610408578063cd3daf9d1461041e57600080fd5b806372f702f3146103225780637b0a47ee1461034257806380faa57d14610358578063813fdd621461036d5780638b8763471461039b578063a694fc3a146103c857600080fd5b80632e17de78116101235780632e17de7814610257578063368519f3146102775780633fc6df6e146102975780633fc8cef3146102b757806348c54b9d146102d757806370a08231146102ec57600080fd5b80628cc262146101755780630700037d146101a857806318160ddd146101d5578063246132f9146101ea578063251083561461020c5780632681f7e41461021f57600080fd5b3661017057005b600080fd5b34801561018157600080fd5b50610195610190366004611b0b565b61049f565b6040519081526020015b60405180910390f35b3480156101b457600080fd5b506101956101c3366004611b0b565b600c6020526000908152604090205481565b3480156101e157600080fd5b50600d54610195565b3480156101f657600080fd5b5061020a610205366004611cae565b61051d565b005b61020a61021a366004611b0b565b6107ce565b34801561022b57600080fd5b5060025461023f906001600160a01b031681565b6040516001600160a01b03909116815260200161019f565b34801561026357600080fd5b5061020a610272366004611c7c565b6107ea565b34801561028357600080fd5b50610195610292366004611cae565b610945565b3480156102a357600080fd5b5060005461023f906001600160a01b031681565b3480156102c357600080fd5b5060035461023f906001600160a01b031681565b3480156102e357600080fd5b5061020a6109a0565b3480156102f857600080fd5b50610195610307366004611b0b565b6001600160a01b03166000908152600e602052604090205490565b34801561032e57600080fd5b5060065461023f906001600160a01b031681565b34801561034e57600080fd5b5061019560095481565b34801561036457600080fd5b50610195610a9c565b61038061037b366004611b0b565b610aaf565b6040805193845260208401929092529082015260600161019f565b3480156103a757600080fd5b506101956103b6366004611b0b565b600b6020526000908152604090205481565b3480156103d457600080fd5b5061020a6103e3366004611c7c565b610db2565b3480156103f457600080fd5b5060045461023f906001600160a01b031681565b34801561041457600080fd5b5061019560085481565b34801561042a57600080fd5b50610195610eff565b34801561043f57600080fd5b5060055461023f906001600160a01b031681565b34801561045f57600080fd5b50610195600a5481565b34801561047557600080fd5b5061019560075481565b34801561048b57600080fd5b5061020a61049a366004611cfe565b610f4b565b6001600160a01b0381166000908152600c6020908152604080832054600b909252822054610517919061051190670de0b6b3a76400009061050b906104ec906104e6610eff565b90611131565b6001600160a01b0388166000908152600e60205260409020549061113d565b90611149565b90611155565b92915050565b6000546001600160a01b0316331461058f5760405162461bcd60e51b815260206004820152602a60248201527f43616c6c6572206973206e6f742052657761726473446973747269627574696f6044820152691b8818dbdb9d1c9858dd60b21b60648201526084015b60405180910390fd5b6000610599610eff565b600a556105a4610a9c565b6008556001600160a01b038116156105eb576105bf8161049f565b6001600160a01b0382166000908152600c6020908152604080832093909355600a54600b909152919020555b6007546105f84284611155565b10156106465760405162461bcd60e51b815260206004820152601d60248201527f43616e6e6f7420726564756365206578697374696e6720706572696f640000006044820152606401610586565b6007544210610661576106598383611149565b6009556106a0565b6007546000906106719042611131565b9050600061068a6009548361113d90919063ffffffff16565b905061069a8461050b8784611155565b60095550505b6005546040516370a0823160e01b81523060048201526000916001600160a01b0316906370a082319060240160206040518083038186803b1580156106e457600080fd5b505afa1580156106f8573d6000803e3d6000fd5b505050506040513d601f19601f8201168201806040525081019061071c9190611c95565b90506107288184611149565b60095411156107795760405162461bcd60e51b815260206004820152601860248201527f50726f76696465642072657761726420746f6f206869676800000000000000006044820152606401610586565b4260088190556107899084611155565b60078190556040805186815260208101929092527f6c07ee05dcf262f13abf9d87b846ee789d2f90fe991d495acd7d7fc109ee1f55910160405180910390a150505050565b60006107d982610aaf565b925050506107e681610db2565b5050565b6002600154141561080d5760405162461bcd60e51b815260040161058690611de0565b60026001553361081b610eff565b600a55610826610a9c565b6008556001600160a01b0381161561086d576108418161049f565b6001600160a01b0382166000908152600c6020908152604080832093909355600a54600b909152919020555b600082116108b15760405162461bcd60e51b8152602060048201526011602482015270043616e6e6f74207769746864726177203607c1b6044820152606401610586565b600d546108be9083611131565b600d55336000908152600e60205260409020546108db9083611131565b336000818152600e6020526040902091909155600654610907916001600160a01b039091169084611161565b60405182815233907f7084f5476618d8e60b11ef0d7d3f06914655adb8793e28ff7f018d4c76d505d5906020015b60405180910390a2505060018055565b60006107ca61098f610959856107cd61113d565b6104e661098a61096c87623cda2061113d565b61097989623cda2961113d565b6109839190611e65565b889061113d565b6111c9565b6109999190611e7d565b9392505050565b600260015414156109c35760405162461bcd60e51b815260040161058690611de0565b6002600155336109d1610eff565b600a556109dc610a9c565b6008556001600160a01b03811615610a23576109f78161049f565b6001600160a01b0382166000908152600c6020908152604080832093909355600a54600b909152919020555b336000908152600c60205260409020548015610a9457336000818152600c6020526040812055600554610a62916001600160a01b039091169083611161565b60405181815233907fe2403640ba68fed3a2f88b7557551d1993f84b99bb10ff833f0cf8db0c5e048690602001610935565b505060018055565b6000610aaa42600754611239565b905090565b60048054600254604080516315ab88c960e31b815290516000948594859485946001600160a01b039283169463e6a4390594939092169263ad5c4648928282019260209290829003018186803b158015610b0857600080fd5b505afa158015610b1c573d6000803e3d6000fd5b505050506040513d601f19601f82011682018060405250810190610b409190611b28565b6040516001600160e01b031960e084901b1681526001600160a01b039182166004820152908816602482015260440160206040518083038186803b158015610b8757600080fd5b505afa158015610b9b573d6000803e3d6000fd5b505050506040513d601f19601f82011682018060405250810190610bbf9190611b28565b9050600080826001600160a01b0316630902f1ac6040518163ffffffff1660e01b815260040160606040518083038186803b158015610bfd57600080fd5b505afa158015610c11573d6000803e3d6000fd5b505050506040513d601f19601f82011682018060405250810190610c359190611c2c565b506001600160701b031691506001600160701b031691506000600260009054906101000a90046001600160a01b03166001600160a01b031663ad5c46486040518163ffffffff1660e01b815260040160206040518083038186803b158015610c9c57600080fd5b505afa158015610cb0573d6000803e3d6000fd5b505050506040513d601f19601f82011682018060405250810190610cd49190611b28565b6001600160a01b0316846001600160a01b0316630dfe16816040518163ffffffff1660e01b815260040160206040518083038186803b158015610d1657600080fd5b505afa158015610d2a573d6000803e3d6000fd5b505050506040513d601f19601f82011682018060405250810190610d4e9190611b28565b6001600160a01b03161415610d6e57610d678334610945565b9050610d7b565b610d788234610945565b90505b6000610d87898361124f565b9050610da08982600180610d9b3488611131565b61151a565b97509750975050505050509193909250565b60026001541415610dd55760405162461bcd60e51b815260040161058690611de0565b600260015533610de3610eff565b600a55610dee610a9c565b6008556001600160a01b03811615610e3557610e098161049f565b6001600160a01b0382166000908152600c6020908152604080832093909355600a54600b909152919020555b60008211610e765760405162461bcd60e51b815260206004820152600e60248201526d043616e6e6f74207374616b6520360941b6044820152606401610586565b600d54610e839083611155565b600d55336000908152600e6020526040902054610ea09083611155565b336000818152600e6020526040902091909155600654610ecd916001600160a01b03909116903085611696565b60405182815233907f9e71bc8eea02a63969f509818f2dafb9254532904319f9dbda79b67bd34a5f3d90602001610935565b6000600d5460001415610f135750600a5490565b610aaa610f42600d5461050b670de0b6b3a7640000610f3c600954610f3c6008546104e6610a9c565b9061113d565b600a5490611155565b60026001541415610f6e5760405162461bcd60e51b815260040161058690611de0565b600260015533610f7c610eff565b600a55610f87610a9c565b6008556001600160a01b03811615610fce57610fa28161049f565b6001600160a01b0382166000908152600c6020908152604080832093909355600a54600b909152919020555b6000861161100f5760405162461bcd60e51b815260206004820152600e60248201526d043616e6e6f74207374616b6520360941b6044820152606401610586565b600d5461101c9087611155565b600d55336000908152600e60205260409020546110399087611155565b336000818152600e60205260409081902092909255600654915163d505accf60e01b81526004810191909152306024820152604481018890526064810187905260ff8616608482015260a4810185905260c481018490526001600160a01b039091169063d505accf9060e401600060405180830381600087803b1580156110bf57600080fd5b505af11580156110d3573d6000803e3d6000fd5b50506006546110f092506001600160a01b03169050333089611696565b60405186815233907f9e71bc8eea02a63969f509818f2dafb9254532904319f9dbda79b67bd34a5f3d9060200160405180910390a250506001805550505050565b60006109998284611ebe565b60006109998284611e9f565b60006109998284611e7d565b60006109998284611e65565b6040516001600160a01b0383166024820152604481018290526111c490849063a9059cbb60e01b906064015b60408051601f198184030181529190526020810180516001600160e01b03166001600160e01b0319909316929092179091526116d4565b505050565b6000600382111561122a57508060006111e3600283611e7d565b6111ee906001611e65565b90505b81811015611224579050806002816112098186611e7d565b6112139190611e65565b61121d9190611e7d565b90506111f1565b50919050565b8115611234575060015b919050565b60008183106112485781610999565b5090919050565b600254604080516315ab88c960e31b815290516000926001600160a01b03169163ad5c4648916004808301926020929190829003018186803b15801561129457600080fd5b505afa1580156112a8573d6000803e3d6000fd5b505050506040513d601f19601f820116820180604052508101906112cc9190611b28565b60025460405163095ea7b360e01b81526001600160a01b0391821660048201526024810185905291169063095ea7b390604401602060405180830381600087803b15801561131957600080fd5b505af115801561132d573d6000803e3d6000fd5b505050506040513d601f19601f820116820180604052508101906113519190611c0a565b5060408051600280825260608201835260009260208301908036833750506040805160028082526060820183529394509291506020830190803683375050600254604080516315ab88c960e31b815290519394506001600160a01b039091169263ad5c464892506004808301926020929190829003018186803b1580156113d757600080fd5b505afa1580156113eb573d6000803e3d6000fd5b505050506040513d601f19601f8201168201806040525081019061140f9190611b28565b8160008151811061142257611422611f17565b60200260200101906001600160a01b031690816001600160a01b031681525050838160018151811061145657611456611f17565b60200260200101906001600160a01b031690816001600160a01b031681525050600061148282856117a6565b600254604051637ff36ab560e01b81529192506001600160a01b031690637ff36ab59086906114bb908590879030904290600401611e30565b6000604051808303818588803b1580156114d457600080fd5b505af11580156114e8573d6000803e3d6000fd5b50505050506040513d6000823e601f3d908101601f191682016040526115119190810190611b45565b50949350505050565b6002546000908190819061153b906001600160a01b038a811691168961184f565b600254600090819081906001600160a01b031663f305d719888d8d8d8d3361156561012c42611e65565b60405160e089901b6001600160e01b03191681526001600160a01b039687166004820152602481019590955260448501939093526064840191909152909216608482015260a481019190915260c4016060604051808303818588803b1580156115cd57600080fd5b505af11580156115e1573d6000803e3d6000fd5b50505050506040513d601f19601f820116820180604052508101906116069190611cd0565b60035460405193965091945092507f2f3289d16dbc3007471d28c4936df3a95222bc938112449400d049637e3309ce9161167d916001600160a01b0316908e908590879089906001600160a01b03958616815293909416602084015260408301919091526060820152608081019190915260a00190565b60405180910390a1919a90995090975095505050505050565b6040516001600160a01b03808516602483015283166044820152606481018290526116ce9085906323b872dd60e01b9060840161118d565b50505050565b6000611729826040518060400160405280602081526020017f5361666545524332303a206c6f772d6c6576656c2063616c6c206661696c6564815250856001600160a01b03166119739092919063ffffffff16565b8051909150156111c457808060200190518101906117479190611c0a565b6111c45760405162461bcd60e51b815260206004820152602a60248201527f5361666545524332303a204552433230206f7065726174696f6e20646964206e6044820152691bdd081cdd58d8d9595960b21b6064820152608401610586565b60025460405163d06ca61f60e01b81526000916001600160a01b03169063d06ca61f906117d99085908790600401611e17565b60006040518083038186803b1580156117f157600080fd5b505afa158015611805573d6000803e3d6000fd5b505050506040513d6000823e601f3d908101601f1916820160405261182d9190810190611b45565b60018151811061183f5761183f611f17565b6020026020010151905092915050565b8015806118d85750604051636eb1769f60e11b81523060048201526001600160a01b03838116602483015284169063dd62ed3e9060440160206040518083038186803b15801561189e57600080fd5b505afa1580156118b2573d6000803e3d6000fd5b505050506040513d601f19601f820116820180604052508101906118d69190611c95565b155b6119435760405162461bcd60e51b815260206004820152603660248201527f5361666545524332303a20617070726f76652066726f6d206e6f6e2d7a65726f60448201527520746f206e6f6e2d7a65726f20616c6c6f77616e636560501b6064820152608401610586565b6040516001600160a01b0383166024820152604481018290526111c490849063095ea7b360e01b9060640161118d565b6060611982848460008561198a565b949350505050565b6060824710156119eb5760405162461bcd60e51b815260206004820152602660248201527f416464726573733a20696e73756666696369656e742062616c616e636520666f6044820152651c8818d85b1b60d21b6064820152608401610586565b6001600160a01b0385163b611a425760405162461bcd60e51b815260206004820152601d60248201527f416464726573733a2063616c6c20746f206e6f6e2d636f6e74726163740000006044820152606401610586565b600080866001600160a01b03168587604051611a5e9190611d91565b60006040518083038185875af1925050503d8060008114611a9b576040519150601f19603f3d011682016040523d82523d6000602084013e611aa0565b606091505b5091509150611ab0828286611abb565b979650505050505050565b60608315611aca575081610999565b825115611ada5782518084602001fd5b8160405162461bcd60e51b81526004016105869190611dad565b80516001600160701b038116811461123457600080fd5b600060208284031215611b1d57600080fd5b813561099981611f43565b600060208284031215611b3a57600080fd5b815161099981611f43565b60006020808385031215611b5857600080fd5b825167ffffffffffffffff80821115611b7057600080fd5b818501915085601f830112611b8457600080fd5b815181811115611b9657611b96611f2d565b8060051b604051601f19603f83011681018181108582111715611bbb57611bbb611f2d565b604052828152858101935084860182860187018a1015611bda57600080fd5b600095505b83861015611bfd578051855260019590950194938601938601611bdf565b5098975050505050505050565b600060208284031215611c1c57600080fd5b8151801515811461099957600080fd5b600080600060608486031215611c4157600080fd5b611c4a84611af4565b9250611c5860208501611af4565b9150604084015163ffffffff81168114611c7157600080fd5b809150509250925092565b600060208284031215611c8e57600080fd5b5035919050565b600060208284031215611ca757600080fd5b5051919050565b60008060408385031215611cc157600080fd5b50508035926020909101359150565b600080600060608486031215611ce557600080fd5b8351925060208401519150604084015190509250925092565b600080600080600060a08688031215611d1657600080fd5b8535945060208601359350604086013560ff81168114611d3557600080fd5b94979396509394606081013594506080013592915050565b600081518084526020808501945080840160005b83811015611d865781516001600160a01b031687529582019590820190600101611d61565b509495945050505050565b60008251611da3818460208701611ed5565b9190910192915050565b6020815260008251806020840152611dcc816040850160208701611ed5565b601f01601f19169190910160400192915050565b6020808252601f908201527f5265656e7472616e637947756172643a207265656e7472616e742063616c6c00604082015260600190565b8281526040602082015260006119826040830184611d4d565b848152608060208201526000611e496080830186611d4d565b6001600160a01b03949094166040830152506060015292915050565b60008219821115611e7857611e78611f01565b500190565b600082611e9a57634e487b7160e01b600052601260045260246000fd5b500490565b6000816000190483118215151615611eb957611eb9611f01565b500290565b600082821015611ed057611ed0611f01565b500390565b60005b83811015611ef0578181015183820152602001611ed8565b838111156116ce5750506000910152565b634e487b7160e01b600052601160045260246000fd5b634e487b7160e01b600052603260045260246000fd5b634e487b7160e01b600052604160045260246000fd5b6001600160a01b0381168114611f5857600080fd5b5056fea2646970667358221220d13e2288f32480f5bc54be4057c6c335d9a0248c251b321f109d355530dc0cbf64736f6c63430008070033",
  "linkReferences": {},
  "deployedLinkReferences": {}
}