{
  "_format": "hh-sol-artifact-1",
  "contractName": "StakingRewards",
  "sourceName": "contracts/StakingRewards.sol",
  "abi": [
    {
      "inputs": [
        {
          "internalType": "address",
          "name": "_rewardsDistribution",
          "type": "address"
        },
        {
          "internalType": "address",
          "name": "_rewardsToken",
          "type": "address"
        },
        {
          "internalType": "address",
          "name": "_stakingToken",
          "type": "address"
        },
        {
          "internalType": "address",
          "name": "_uniswap",
          "type": "address"
        },
        {
          "internalType": "address",
          "name": "_weth",
          "type": "address"
        },
        {
          "internalType": "address",
          "name": "_uniswapFactory",
          "type": "address"
        }
      ],
      "stateMutability": "nonpayable",
      "type": "constructor"
    },
    {
      "anonymous": false,
      "inputs": [
        {
          "indexed": false,
          "internalType": "address",
          "name": "tokenA",
          "type": "address"
        },
        {
          "indexed": false,
          "internalType": "address",
          "name": "token2",
          "type": "address"
        },
        {
          "indexed": false,
          "internalType": "uint256",
          "name": "liquidity",
          "type": "uint256"
        },
        {
          "indexed": false,
          "internalType": "uint256",
          "name": "amountA",
          "type": "uint256"
        },
        {
          "indexed": false,
          "internalType": "uint256",
          "name": "amountB",
          "type": "uint256"
        }
      ],
      "name": "AddLiquidity",
      "type": "event"
    },
    {
      "anonymous": false,
      "inputs": [
        {
          "indexed": false,
          "internalType": "uint256",
          "name": "reward",
          "type": "uint256"
        },
        {
          "indexed": false,
          "internalType": "uint256",
          "name": "periodFinish",
          "type": "uint256"
        }
      ],
      "name": "RewardAdded",
      "type": "event"
    },
    {
      "anonymous": false,
      "inputs": [
        {
          "indexed": true,
          "internalType": "address",
          "name": "user",
          "type": "address"
        },
        {
          "indexed": false,
          "internalType": "uint256",
          "name": "reward",
          "type": "uint256"
        }
      ],
      "name": "RewardPaid",
      "type": "event"
    },
    {
      "anonymous": false,
      "inputs": [
        {
          "indexed": true,
          "internalType": "address",
          "name": "user",
          "type": "address"
        },
        {
          "indexed": false,
          "internalType": "uint256",
          "name": "amount",
          "type": "uint256"
        }
      ],
      "name": "Staked",
      "type": "event"
    },
    {
      "anonymous": false,
      "inputs": [
        {
          "indexed": true,
          "internalType": "address",
          "name": "user",
          "type": "address"
        },
        {
          "indexed": false,
          "internalType": "uint256",
          "name": "amount",
          "type": "uint256"
        }
      ],
      "name": "Withdrawn",
      "type": "event"
    },
    {
      "inputs": [],
      "name": "UNISWAP_FACTORY",
      "outputs": [
        {
          "internalType": "address",
          "name": "",
          "type": "address"
        }
      ],
      "stateMutability": "view",
      "type": "function"
    },
    {
      "inputs": [
        {
          "internalType": "address",
          "name": "_tokenB",
          "type": "address"
        }
      ],
      "name": "addLiquidityAndStake",
      "outputs": [],
      "stateMutability": "payable",
      "type": "function"
    },
    {
      "inputs": [
        {
          "internalType": "address",
          "name": "_tokenOut",
          "type": "address"
        }
      ],
      "name": "addLiquidityEth",
      "outputs": [
        {
          "internalType": "uint256",
          "name": "",
          "type": "uint256"
        },
        {
          "internalType": "uint256",
          "name": "",
          "type": "uint256"
        },
        {
          "internalType": "uint256",
          "name": "",
          "type": "uint256"
        }
      ],
      "stateMutability": "payable",
      "type": "function"
    },
    {
      "inputs": [
        {
          "internalType": "address",
          "name": "_account",
          "type": "address"
        }
      ],
      "name": "balanceOf",
      "outputs": [
        {
          "internalType": "uint256",
          "name": "",
          "type": "uint256"
        }
      ],
      "stateMutability": "view",
      "type": "function"
    },
    {
      "inputs": [],
      "name": "claimTokens",
      "outputs": [],
      "stateMutability": "nonpayable",
      "type": "function"
    },
    {
      "inputs": [
        {
          "internalType": "address",
          "name": "_account",
          "type": "address"
        }
      ],
      "name": "earned",
      "outputs": [
        {
          "internalType": "uint256",
          "name": "",
          "type": "uint256"
        }
      ],
      "stateMutability": "view",
      "type": "function"
    },
    {
      "inputs": [
        {
          "internalType": "uint256",
          "name": "r",
          "type": "uint256"
        },
        {
          "internalType": "uint256",
          "name": "a",
          "type": "uint256"
        }
      ],
      "name": "getSwapAmount",
      "outputs": [
        {
          "internalType": "uint256",
          "name": "",
          "type": "uint256"
        }
      ],
      "stateMutability": "pure",
      "type": "function"
    },
    {
      "inputs": [],
      "name": "lastTimeRewardApplicable",
      "outputs": [
        {
          "internalType": "uint256",
          "name": "",
          "type": "uint256"
        }
      ],
      "stateMutability": "view",
      "type": "function"
    },
    {
      "inputs": [],
      "name": "lastUpdateTime",
      "outputs": [
        {
          "internalType": "uint256",
          "name": "",
          "type": "uint256"
        }
      ],
      "stateMutability": "view",
      "type": "function"
    },
    {
      "inputs": [
        {
          "internalType": "uint256",
          "name": "reward",
          "type": "uint256"
        },
        {
          "internalType": "uint256",
          "name": "rewardsDuration",
          "type": "uint256"
        }
      ],
      "name": "notifyRewardAmount",
      "outputs": [],
      "stateMutability": "nonpayable",
      "type": "function"
    },
    {
      "inputs": [],
      "name": "periodFinish",
      "outputs": [
        {
          "internalType": "uint256",
          "name": "",
          "type": "uint256"
        }
      ],
      "stateMutability": "view",
      "type": "function"
    },
    {
      "inputs": [],
      "name": "rewardPerToken",
      "outputs": [
        {
          "internalType": "uint256",
          "name": "",
          "type": "uint256"
        }
      ],
      "stateMutability": "view",
      "type": "function"
    },
    {
      "inputs": [],
      "name": "rewardPerTokenStored",
      "outputs": [
        {
          "internalType": "uint256",
          "name": "",
          "type": "uint256"
        }
      ],
      "stateMutability": "view",
      "type": "function"
    },
    {
      "inputs": [],
      "name": "rewardRate",
      "outputs": [
        {
          "internalType": "uint256",
          "name": "",
          "type": "uint256"
        }
      ],
      "stateMutability": "view",
      "type": "function"
    },
    {
      "inputs": [
        {
          "internalType": "address",
          "name": "",
          "type": "address"
        }
      ],
      "name": "rewards",
      "outputs": [
        {
          "internalType": "uint256",
          "name": "",
          "type": "uint256"
        }
      ],
      "stateMutability": "view",
      "type": "function"
    },
    {
      "inputs": [],
      "name": "rewardsDistribution",
      "outputs": [
        {
          "internalType": "address",
          "name": "",
          "type": "address"
        }
      ],
      "stateMutability": "view",
      "type": "function"
    },
    {
      "inputs": [],
      "name": "rewardsToken",
      "outputs": [
        {
          "internalType": "contract IERC20",
          "name": "",
          "type": "address"
        }
      ],
      "stateMutability": "view",
      "type": "function"
    },
    {
      "inputs": [
        {
          "internalType": "uint256",
          "name": "_amount",
          "type": "uint256"
        }
      ],
      "name": "stake",
      "outputs": [],
      "stateMutability": "nonpayable",
      "type": "function"
    },
    {
      "inputs": [
        {
          "internalType": "uint256",
          "name": "_amount",
          "type": "uint256"
        },
        {
          "internalType": "uint256",
          "name": "_deadline",
          "type": "uint256"
        },
        {
          "internalType": "uint8",
          "name": "_v",
          "type": "uint8"
        },
        {
          "internalType": "bytes32",
          "name": "_r",
          "type": "bytes32"
        },
        {
          "internalType": "bytes32",
          "name": "_s",
          "type": "bytes32"
        }
      ],
      "name": "stakeWithPermit",
      "outputs": [],
      "stateMutability": "nonpayable",
      "type": "function"
    },
    {
      "inputs": [],
      "name": "stakingToken",
      "outputs": [
        {
          "internalType": "contract IERC20",
          "name": "",
          "type": "address"
        }
      ],
      "stateMutability": "view",
      "type": "function"
    },
    {
      "inputs": [],
      "name": "totalSupply",
      "outputs": [
        {
          "internalType": "uint256",
          "name": "",
          "type": "uint256"
        }
      ],
      "stateMutability": "view",
      "type": "function"
    },
    {
      "inputs": [],
      "name": "uniswap",
      "outputs": [
        {
          "internalType": "contract IUniswap",
          "name": "",
          "type": "address"
        }
      ],
      "stateMutability": "view",
      "type": "function"
    },
    {
      "inputs": [
        {
          "internalType": "uint256",
          "name": "_amount",
          "type": "uint256"
        }
      ],
      "name": "unstake",
      "outputs": [],
      "stateMutability": "nonpayable",
      "type": "function"
    },
    {
      "inputs": [
        {
          "internalType": "address",
          "name": "",
          "type": "address"
        }
      ],
      "name": "userRewardPerTokenPaid",
      "outputs": [
        {
          "internalType": "uint256",
          "name": "",
          "type": "uint256"
        }
      ],
      "stateMutability": "view",
      "type": "function"
    },
    {
      "inputs": [],
      "name": "weth",
      "outputs": [
        {
          "internalType": "address",
          "name": "",
          "type": "address"
        }
      ],
      "stateMutability": "view",
      "type": "function"
    },
    {
      "stateMutability": "payable",
      "type": "receive"
    }
  ],
  "bytecode": "0x608060405260056009556005600a553480156200001b57600080fd5b50604051620021dc380380620021dc8339810160408190526200003e91620000d2565b60018055600280546001600160a01b03199081166001600160a01b039586161790915560038054821693851693909317909255600480548316918416919091179055600580548216948316949094179093556006805484169282169290921790915560008054909216921691909117905562000153565b80516001600160a01b0381168114620000cd57600080fd5b919050565b60008060008060008060c08789031215620000ec57600080fd5b620000f787620000b5565b95506200010760208801620000b5565b94506200011760408801620000b5565b93506200012760608801620000b5565b92506200013760808801620000b5565b91506200014760a08801620000b5565b90509295509295509295565b61207980620001636000396000f3fe6080604052600436106101695760003560e01c806372f702f3116100d1578063c74c0fac1161008a578063d1af0c7d11610064578063d1af0c7d14610431578063df136d6514610451578063ebe2b12b14610467578063ecd9ba821461047d57600080fd5b8063c74c0fac146103e6578063c8f33c9114610406578063cd3daf9d1461041c57600080fd5b806372f702f3146103225780637b0a47ee1461034257806380faa57d14610358578063813fdd621461036b5780638b87634714610399578063a694fc3a146103c657600080fd5b80632e17de78116101235780632e17de7814610257578063368519f3146102775780633fc6df6e146102975780633fc8cef3146102b757806348c54b9d146102d757806370a08231146102ec57600080fd5b80628cc262146101755780630700037d146101a857806318160ddd146101d5578063246132f9146101ea578063251083561461020c5780632681f7e41461021f57600080fd5b3661017057005b600080fd5b34801561018157600080fd5b50610195610190366004611bc5565b61049d565b6040519081526020015b60405180910390f35b3480156101b457600080fd5b506101956101c3366004611bc5565b600c6020526000908152604090205481565b3480156101e157600080fd5b50600d54610195565b3480156101f657600080fd5b5061020a610205366004611d68565b610566565b005b61020a61021a366004611bc5565b610810565b34801561022b57600080fd5b5060025461023f906001600160a01b031681565b6040516001600160a01b03909116815260200161019f565b34801561026357600080fd5b5061020a610272366004611d36565b61082c565b34801561028357600080fd5b50610195610292366004611d68565b610980565b3480156102a357600080fd5b5060005461023f906001600160a01b031681565b3480156102c357600080fd5b5060035461023f906001600160a01b031681565b3480156102e357600080fd5b5061020a6109db565b3480156102f857600080fd5b50610195610307366004611bc5565b6001600160a01b03166000908152600e602052604090205490565b34801561032e57600080fd5b5060065461023f906001600160a01b031681565b34801561034e57600080fd5b5061019560095481565b34801561036457600080fd5b5042610195565b61037e610379366004611bc5565b610ad9565b6040805193845260208401929092529082015260600161019f565b3480156103a557600080fd5b506101956103b4366004611bc5565b600b6020526000908152604090205481565b3480156103d257600080fd5b5061020a6103e1366004611d36565b610ddc565b3480156103f257600080fd5b5060045461023f906001600160a01b031681565b34801561041257600080fd5b5061019560085481565b34801561042857600080fd5b50610195610f22565b34801561043d57600080fd5b5060055461023f906001600160a01b031681565b34801561045d57600080fd5b50610195600a5481565b34801561047357600080fd5b5061019560075481565b34801561048957600080fd5b5061020a610498366004611db8565b610f72565b60006104e76040518060400160405280600681526020016519585c9b995960d21b8152506104c9610f22565b6001600160a01b0385166000908152600b6020526040902054611151565b6001600160a01b0382166000908152600c6020908152604080832054600b90925290912054610560919061055a90670de0b6b3a764000090610554906105359061052f610f22565b9061119d565b6001600160a01b0388166000908152600e6020526040902054906111a9565b906111b5565b906111c1565b92915050565b6000546001600160a01b031633146105d85760405162461bcd60e51b815260206004820152602a60248201527f43616c6c6572206973206e6f742052657761726473446973747269627574696f6044820152691b8818dbdb9d1c9858dd60b21b60648201526084015b60405180910390fd5b60006105e2610f22565b600a55426008556001600160a01b0381161561062d576106018161049d565b6001600160a01b0382166000908152600c6020908152604080832093909355600a54600b909152919020555b60075461063a42846111c1565b10156106885760405162461bcd60e51b815260206004820152601d60248201527f43616e6e6f7420726564756365206578697374696e6720706572696f6400000060448201526064016105cf565b60075442106106a35761069b83836111b5565b6009556106e2565b6007546000906106b3904261119d565b905060006106cc600954836111a990919063ffffffff16565b90506106dc8461055487846111c1565b60095550505b6005546040516370a0823160e01b81523060048201526000916001600160a01b0316906370a082319060240160206040518083038186803b15801561072657600080fd5b505afa15801561073a573d6000803e3d6000fd5b505050506040513d601f19601f8201168201806040525081019061075e9190611d4f565b905061076a81846111b5565b60095411156107bb5760405162461bcd60e51b815260206004820152601860248201527f50726f76696465642072657761726420746f6f2068696768000000000000000060448201526064016105cf565b4260088190556107cb90846111c1565b60078190556040805186815260208101929092527f6c07ee05dcf262f13abf9d87b846ee789d2f90fe991d495acd7d7fc109ee1f55910160405180910390a150505050565b600061081b82610ad9565b9250505061082881610ddc565b5050565b6002600154141561084f5760405162461bcd60e51b81526004016105cf90611ecb565b60026001553361085d610f22565b600a55426008556001600160a01b038116156108a85761087c8161049d565b6001600160a01b0382166000908152600c6020908152604080832093909355600a54600b909152919020555b600082116108ec5760405162461bcd60e51b8152602060048201526011602482015270043616e6e6f74207769746864726177203607c1b60448201526064016105cf565b600d546108f9908361119d565b600d55336000908152600e6020526040902054610916908361119d565b336000818152600e6020526040902091909155600654610942916001600160a01b0390911690846111cd565b60405182815233907f7084f5476618d8e60b11ef0d7d3f06914655adb8793e28ff7f018d4c76d505d5906020015b60405180910390a2505060018055565b60006107ca6109ca610994856107cd6111a9565b61052f6109c56109a787623cda206111a9565b6109b489623cda296111a9565b6109be9190611f50565b88906111a9565b611230565b6109d49190611f68565b9392505050565b600260015414156109fe5760405162461bcd60e51b81526004016105cf90611ecb565b600260015533610a0c610f22565b600a55426008556001600160a01b03811615610a5757610a2b8161049d565b6001600160a01b0382166000908152600c6020908152604080832093909355600a54600b909152919020555b336000908152600c6020526040902054610a70816112a0565b8015610ad157336000818152600c6020526040812055600554610a9f916001600160a01b0390911690836111cd565b60405181815233907fe2403640ba68fed3a2f88b7557551d1993f84b99bb10ff833f0cf8db0c5e048690602001610970565b505060018055565b60048054600254604080516315ab88c960e31b815290516000948594859485946001600160a01b039283169463e6a4390594939092169263ad5c4648928282019260209290829003018186803b158015610b3257600080fd5b505afa158015610b46573d6000803e3d6000fd5b505050506040513d601f19601f82011682018060405250810190610b6a9190611be2565b6040516001600160e01b031960e084901b1681526001600160a01b039182166004820152908816602482015260440160206040518083038186803b158015610bb157600080fd5b505afa158015610bc5573d6000803e3d6000fd5b505050506040513d601f19601f82011682018060405250810190610be99190611be2565b9050600080826001600160a01b0316630902f1ac6040518163ffffffff1660e01b815260040160606040518083038186803b158015610c2757600080fd5b505afa158015610c3b573d6000803e3d6000fd5b505050506040513d601f19601f82011682018060405250810190610c5f9190611ce6565b506001600160701b031691506001600160701b031691506000600260009054906101000a90046001600160a01b03166001600160a01b031663ad5c46486040518163ffffffff1660e01b815260040160206040518083038186803b158015610cc657600080fd5b505afa158015610cda573d6000803e3d6000fd5b505050506040513d601f19601f82011682018060405250810190610cfe9190611be2565b6001600160a01b0316846001600160a01b0316630dfe16816040518163ffffffff1660e01b815260040160206040518083038186803b158015610d4057600080fd5b505afa158015610d54573d6000803e3d6000fd5b505050506040513d601f19601f82011682018060405250810190610d789190611be2565b6001600160a01b03161415610d9857610d918334610980565b9050610da5565b610da28234610980565b90505b6000610db189836112e8565b9050610dca8982600180610dc5348861119d565b6115b3565b97509750975050505050509193909250565b60026001541415610dff5760405162461bcd60e51b81526004016105cf90611ecb565b600260015533610e0d610f22565b600a55426008556001600160a01b03811615610e5857610e2c8161049d565b6001600160a01b0382166000908152600c6020908152604080832093909355600a54600b909152919020555b60008211610e995760405162461bcd60e51b815260206004820152600e60248201526d043616e6e6f74207374616b6520360941b60448201526064016105cf565b600d54610ea690836111c1565b600d55336000908152600e6020526040902054610ec390836111c1565b336000818152600e6020526040902091909155600654610ef0916001600160a01b0390911690308561172f565b60405182815233907f9e71bc8eea02a63969f509818f2dafb9254532904319f9dbda79b67bd34a5f3d90602001610970565b6000600d5460001415610f365750600a5490565b610f6d610f64600d54610554670de0b6b3a7640000610f5e600954610f5e60085461052f4290565b906111a9565b600a54906111c1565b905090565b60026001541415610f955760405162461bcd60e51b81526004016105cf90611ecb565b600260015533610fa3610f22565b600a55426008556001600160a01b03811615610fee57610fc28161049d565b6001600160a01b0382166000908152600c6020908152604080832093909355600a54600b909152919020555b6000861161102f5760405162461bcd60e51b815260206004820152600e60248201526d043616e6e6f74207374616b6520360941b60448201526064016105cf565b600d5461103c90876111c1565b600d55336000908152600e602052604090205461105990876111c1565b336000818152600e60205260409081902092909255600654915163d505accf60e01b81526004810191909152306024820152604481018890526064810187905260ff8616608482015260a4810185905260c481018490526001600160a01b039091169063d505accf9060e401600060405180830381600087803b1580156110df57600080fd5b505af11580156110f3573d6000803e3d6000fd5b505060065461111092506001600160a01b0316905033308961172f565b60405186815233907f9e71bc8eea02a63969f509818f2dafb9254532904319f9dbda79b67bd34a5f3d9060200160405180910390a250506001805550505050565b61119883838360405160240161116993929190611ea6565b60408051601f198184030181529190526020810180516001600160e01b031663969cdd0360e01b17905261176d565b505050565b60006109d48284611fa9565b60006109d48284611f8a565b60006109d48284611f68565b60006109d48284611f50565b6040516001600160a01b03831660248201526044810182905261119890849063a9059cbb60e01b906064015b60408051601f198184030181529190526020810180516001600160e01b03166001600160e01b03199093169290921790915261178e565b60006003821115611291575080600061124a600283611f68565b611255906001611f50565b90505b8181101561128b579050806002816112708186611f68565b61127a9190611f50565b6112849190611f68565b9050611258565b50919050565b811561129b575060015b919050565b6112e5816040516024016112b691815260200190565b60408051601f198184030181529190526020810180516001600160e01b031663f5b1bba960e01b17905261176d565b50565b600254604080516315ab88c960e31b815290516000926001600160a01b03169163ad5c4648916004808301926020929190829003018186803b15801561132d57600080fd5b505afa158015611341573d6000803e3d6000fd5b505050506040513d601f19601f820116820180604052508101906113659190611be2565b60025460405163095ea7b360e01b81526001600160a01b0391821660048201526024810185905291169063095ea7b390604401602060405180830381600087803b1580156113b257600080fd5b505af11580156113c6573d6000803e3d6000fd5b505050506040513d601f19601f820116820180604052508101906113ea9190611cc4565b5060408051600280825260608201835260009260208301908036833750506040805160028082526060820183529394509291506020830190803683375050600254604080516315ab88c960e31b815290519394506001600160a01b039091169263ad5c464892506004808301926020929190829003018186803b15801561147057600080fd5b505afa158015611484573d6000803e3d6000fd5b505050506040513d601f19601f820116820180604052508101906114a89190611be2565b816000815181106114bb576114bb612002565b60200260200101906001600160a01b031690816001600160a01b03168152505083816001815181106114ef576114ef612002565b60200260200101906001600160a01b031690816001600160a01b031681525050600061151b8285611860565b600254604051637ff36ab560e01b81529192506001600160a01b031690637ff36ab5908690611554908590879030904290600401611f1b565b6000604051808303818588803b15801561156d57600080fd5b505af1158015611581573d6000803e3d6000fd5b50505050506040513d6000823e601f3d908101601f191682016040526115aa9190810190611bff565b50949350505050565b600254600090819081906115d4906001600160a01b038a8116911689611909565b600254600090819081906001600160a01b031663f305d719888d8d8d8d336115fe61012c42611f50565b60405160e089901b6001600160e01b03191681526001600160a01b039687166004820152602481019590955260448501939093526064840191909152909216608482015260a481019190915260c4016060604051808303818588803b15801561166657600080fd5b505af115801561167a573d6000803e3d6000fd5b50505050506040513d601f19601f8201168201806040525081019061169f9190611d8a565b60035460405193965091945092507f2f3289d16dbc3007471d28c4936df3a95222bc938112449400d049637e3309ce91611716916001600160a01b0316908e908590879089906001600160a01b03958616815293909416602084015260408301919091526060820152608081019190915260a00190565b60405180910390a1919a90995090975095505050505050565b6040516001600160a01b03808516602483015283166044820152606481018290526117679085906323b872dd60e01b906084016111f9565b50505050565b80516a636f6e736f6c652e6c6f67602083016000808483855afa5050505050565b60006117e3826040518060400160405280602081526020017f5361666545524332303a206c6f772d6c6576656c2063616c6c206661696c6564815250856001600160a01b0316611a2d9092919063ffffffff16565b80519091501561119857808060200190518101906118019190611cc4565b6111985760405162461bcd60e51b815260206004820152602a60248201527f5361666545524332303a204552433230206f7065726174696f6e20646964206e6044820152691bdd081cdd58d8d9595960b21b60648201526084016105cf565b60025460405163d06ca61f60e01b81526000916001600160a01b03169063d06ca61f906118939085908790600401611f02565b60006040518083038186803b1580156118ab57600080fd5b505afa1580156118bf573d6000803e3d6000fd5b505050506040513d6000823e601f3d908101601f191682016040526118e79190810190611bff565b6001815181106118f9576118f9612002565b6020026020010151905092915050565b8015806119925750604051636eb1769f60e11b81523060048201526001600160a01b03838116602483015284169063dd62ed3e9060440160206040518083038186803b15801561195857600080fd5b505afa15801561196c573d6000803e3d6000fd5b505050506040513d601f19601f820116820180604052508101906119909190611d4f565b155b6119fd5760405162461bcd60e51b815260206004820152603660248201527f5361666545524332303a20617070726f76652066726f6d206e6f6e2d7a65726f60448201527520746f206e6f6e2d7a65726f20616c6c6f77616e636560501b60648201526084016105cf565b6040516001600160a01b03831660248201526044810182905261119890849063095ea7b360e01b906064016111f9565b6060611a3c8484600085611a44565b949350505050565b606082471015611aa55760405162461bcd60e51b815260206004820152602660248201527f416464726573733a20696e73756666696369656e742062616c616e636520666f6044820152651c8818d85b1b60d21b60648201526084016105cf565b6001600160a01b0385163b611afc5760405162461bcd60e51b815260206004820152601d60248201527f416464726573733a2063616c6c20746f206e6f6e2d636f6e747261637400000060448201526064016105cf565b600080866001600160a01b03168587604051611b189190611e77565b60006040518083038185875af1925050503d8060008114611b55576040519150601f19603f3d011682016040523d82523d6000602084013e611b5a565b606091505b5091509150611b6a828286611b75565b979650505050505050565b60608315611b845750816109d4565b825115611b945782518084602001fd5b8160405162461bcd60e51b81526004016105cf9190611e93565b80516001600160701b038116811461129b57600080fd5b600060208284031215611bd757600080fd5b81356109d48161202e565b600060208284031215611bf457600080fd5b81516109d48161202e565b60006020808385031215611c1257600080fd5b825167ffffffffffffffff80821115611c2a57600080fd5b818501915085601f830112611c3e57600080fd5b815181811115611c5057611c50612018565b8060051b604051601f19603f83011681018181108582111715611c7557611c75612018565b604052828152858101935084860182860187018a1015611c9457600080fd5b600095505b83861015611cb7578051855260019590950194938601938601611c99565b5098975050505050505050565b600060208284031215611cd657600080fd5b815180151581146109d457600080fd5b600080600060608486031215611cfb57600080fd5b611d0484611bae565b9250611d1260208501611bae565b9150604084015163ffffffff81168114611d2b57600080fd5b809150509250925092565b600060208284031215611d4857600080fd5b5035919050565b600060208284031215611d6157600080fd5b5051919050565b60008060408385031215611d7b57600080fd5b50508035926020909101359150565b600080600060608486031215611d9f57600080fd5b8351925060208401519150604084015190509250925092565b600080600080600060a08688031215611dd057600080fd5b8535945060208601359350604086013560ff81168114611def57600080fd5b94979396509394606081013594506080013592915050565b600081518084526020808501945080840160005b83811015611e405781516001600160a01b031687529582019590820190600101611e1b565b509495945050505050565b60008151808452611e63816020860160208601611fc0565b601f01601f19169290920160200192915050565b60008251611e89818460208701611fc0565b9190910192915050565b6020815260006109d46020830184611e4b565b606081526000611eb96060830186611e4b565b60208301949094525060400152919050565b6020808252601f908201527f5265656e7472616e637947756172643a207265656e7472616e742063616c6c00604082015260600190565b828152604060208201526000611a3c6040830184611e07565b848152608060208201526000611f346080830186611e07565b6001600160a01b03949094166040830152506060015292915050565b60008219821115611f6357611f63611fec565b500190565b600082611f8557634e487b7160e01b600052601260045260246000fd5b500490565b6000816000190483118215151615611fa457611fa4611fec565b500290565b600082821015611fbb57611fbb611fec565b500390565b60005b83811015611fdb578181015183820152602001611fc3565b838111156117675750506000910152565b634e487b7160e01b600052601160045260246000fd5b634e487b7160e01b600052603260045260246000fd5b634e487b7160e01b600052604160045260246000fd5b6001600160a01b03811681146112e557600080fdfea2646970667358221220f580714fd28d9336986b9d226d51e2faf1d5f6fac03ea3527f8e508f18d1174b64736f6c63430008070033",
  "linkReferences": {},
  "deployedLinkReferences": {}
}